:100000000C9446000C9465000C9465000C946500FB
:100010000C9465000C9465000C9465000C946500CC
:100020000C9465000C9465000C9465000C946500BC
:100030000C9465000C94B5000C9465000C9465005C
:100040000C9465000C9465000C9465000C9465009C
:100050000C9465000C9465000C9465000C9465008C
:100060000C9465000C9465000C9465000C9465007C
:100070000C9465000C9465000C9465000C9465006C
:100080000C9465000C9465000C94650011241FBE4F
:10009000CFEFD0E4DEBFCDBF11E0A0E0B1E0E0E4FF
:1000A000F6E000E00BBF02C007900D92A231B1074D
:1000B000D9F721E0A2E1B1E001C01D92AC31B20755
:1000C000E1F70E94DF020C941E030C940000CF9312
:1000D000DF93CDB7DEB781E890E02BE0FC01208311
:1000E00088E890E02DE730E0FC01318320838FE643
:1000F00090E022E0FC01208384E890E0FC01118282
:1001000010828091000190910101A0910201B091B3
:1001100003018093130190931401A0931501B093F0
:1001200016018FE590E02FE530E0F901208120688D
:10013000FC0120830000DF91CF910895CF93DF93DE
:10014000CDB7DEB781E890E0FC0110820000DF91BE
:10015000CF910895CF93DF93CDB7DEB781E0809341
:1001600012010000DF91CF9108951F920F9200902D
:100170005F000F92112400905B000F922F933F932A
:100180004F935F936F937F938F939F93AF93BF939F
:10019000EF93FF93CF93DF93CDB7DEB78091130139
:1001A00090911401A0911501B09116010197A10938
:1001B000B1098093130190931401A0931501B0939A
:1001C00016018091130190911401A0911501B09135
:1001D0001601892B8A2B8B2B91F40E94AA00809107
:1001E000000190910101A0910201B091030180935F
:1001F000130190931401A0931501B0931601000010
:10020000DF91CF91FF91EF91BF91AF919F918F912E
:100210007F916F915F914F913F912F910F9000923D
:100220005B000F9000925F000F901F901895CF9386
:10023000DF9300D000D0CDB7DEB769837A838B839C
:100240009C8389819A81AB81BC81809300019093CA
:100250000101A0930201B0930301809100019091EC
:100260000101A0910201B0910301809313019093C9
:100270001401A0931501B093160100000F900F9088
:100280000F900F90DF91CF910895CF93DF9300D01F
:100290001F92CDB7DEB789837B836A8389818A30D9
:1002A00031F48A819B81BC018DE00E94450180EC84
:1002B00090E0FC018081882F90E080729927892B43
:1002C000B1F386EC90E02981FC01208380E090E08E
:1002D0000F900F900F90DF91CF910895CF93DF9300
:1002E000CDB7DEB780911A0190911B018230910544
:1002F00009F463C08330910528F4009759F0019701
:10030000A9F01DC18330910509F493C0049709F445
:10031000CCC015C187E0809319011092170181E0CC
:1003200090E090931B0180931A010AC1109217016B
:1003300080911801882339F481E090E090931B01AB
:1003400080931A01F6C080911801833049F410920D
:10035000190184E090E090931B0180931A01E9C099
:1003600080911801813091F480911901893020F435
:10037000809119018F5F01C089E08093190182E0AB
:1003800090E090931B0180931A01D3C080911801D3
:10039000823009F0CEC080911901882321F080912C
:1003A0001901815001C080E08093190183E090E041
:1003B00090931B0180931A01BCC08091180188237F
:1003C00049F41092170181E090E090931B01809313
:1003D0001A01B1C080911801833049F410921901BB
:1003E00084E090E090931B0180931A01A4C0809157
:1003F0001801813039F482E090E090931B018093E2
:100400001A0199C080911801823009F094C080913E
:100410001901882321F080911901815001C080E0E9
:100420008093190183E090E090931B0180931A015F
:1004300082C080911801882349F41092170181E04D
:1004400090E090931B0180931A0177C0809118016E
:10045000833049F41092190184E090E090931B01DD
:1004600080931A016AC080911801813091F48091C3
:100470001901893020F4809119018F5F01C089E052
:100480008093190182E090E090931B0180931A0100
:1004900054C080911801823009F04FC083E090E091
:1004A00090931B0180931A0148C080911801882302
:1004B00039F481E090E090931B0180931A013FC0D2
:1004C00080911801833049F41092190184E090E082
:1004D00090931B0180931A0132C0809118018130E2
:1004E00091F480911901893020F4809119018F5F76
:1004F00001C089E08093190182E090E090931B0194
:1005000080931A011CC0809118018230C1F480913F
:100510001901882321F080911901815001C080E0E8
:100520008093190183E090E090931B0180931A015E
:1005300006C0000005C0000003C0000001C00000AC
:1005400080911A0190911B018230910519F0039757
:10055000C1F031C0809117018F5F809317018091A6
:1005600017018A3028F180911901893020F4809197
:1005700019018F5F01C089E0809319011092170162
:1005800017C0809117018F5F809317018091170129
:100590008A3080F080911901882321F0809119011F
:1005A000815001C080E0809319011092170102C0B0
:1005B000000001C000000000DF91CF910895CF93AB
:1005C000DF93CDB7DEB781E290E0FC01108282E2DA
:1005D00090E02FEFFC01208384E290E02FEFFC01FC
:1005E000208385E290E0FC01108264E670E080E008
:1005F00090E00E9417010E9467001092190110926A
:1006000018011092170110921B0110921A0180E23A
:1006100090E0FC0180818095809318010E946E011A
:1006200085E290E020911901FC0120830000809177
:1006300012018823E1F310921201E9CFF894FFCF61
:100640000100000000000002000000004501000061
:020650000000A8
:00000001FF
